{
  "contractName": "Dryb",
  "abi": [
    {
      "constant": true,
      "inputs": [],
      "name": "baseFare",
      "outputs": [
        {
          "name": "",
          "type": "uint256"
        }
      ],
      "payable": false,
      "stateMutability": "view",
      "type": "function"
    },
    {
      "constant": true,
      "inputs": [
        {
          "name": "",
          "type": "uint256"
        }
      ],
      "name": "adminList",
      "outputs": [
        {
          "name": "",
          "type": "address"
        }
      ],
      "payable": false,
      "stateMutability": "view",
      "type": "function"
    },
    {
      "constant": true,
      "inputs": [],
      "name": "perWaitingTime",
      "outputs": [
        {
          "name": "",
          "type": "uint256"
        }
      ],
      "payable": false,
      "stateMutability": "view",
      "type": "function"
    },
    {
      "constant": true,
      "inputs": [],
      "name": "pricePerKm",
      "outputs": [
        {
          "name": "",
          "type": "uint256"
        }
      ],
      "payable": false,
      "stateMutability": "view",
      "type": "function"
    },
    {
      "constant": true,
      "inputs": [
        {
          "name": "",
          "type": "uint256"
        }
      ],
      "name": "rideList",
      "outputs": [
        {
          "name": "",
          "type": "bytes32"
        }
      ],
      "payable": false,
      "stateMutability": "view",
      "type": "function"
    },
    {
      "constant": true,
      "inputs": [
        {
          "name": "",
          "type": "uint256"
        }
      ],
      "name": "approverList",
      "outputs": [
        {
          "name": "",
          "type": "address"
        }
      ],
      "payable": false,
      "stateMutability": "view",
      "type": "function"
    },
    {
      "constant": true,
      "inputs": [
        {
          "name": "",
          "type": "uint256"
        }
      ],
      "name": "driverList",
      "outputs": [
        {
          "name": "",
          "type": "address"
        }
      ],
      "payable": false,
      "stateMutability": "view",
      "type": "function"
    },
    {
      "constant": true,
      "inputs": [],
      "name": "pricePerMinute",
      "outputs": [
        {
          "name": "",
          "type": "uint256"
        }
      ],
      "payable": false,
      "stateMutability": "view",
      "type": "function"
    },
    {
      "inputs": [],
      "payable": false,
      "stateMutability": "nonpayable",
      "type": "constructor"
    },
    {
      "anonymous": false,
      "inputs": [
        {
          "indexed": false,
          "name": "admin",
          "type": "address"
        },
        {
          "indexed": false,
          "name": "message",
          "type": "bytes32"
        },
        {
          "indexed": false,
          "name": "vehicle",
          "type": "bytes32"
        },
        {
          "indexed": false,
          "name": "_baseFare",
          "type": "uint256"
        },
        {
          "indexed": false,
          "name": "_pricePerKm",
          "type": "uint256"
        },
        {
          "indexed": false,
          "name": "_pricePerMinute",
          "type": "uint256"
        },
        {
          "indexed": false,
          "name": "_perWaitingTime",
          "type": "uint256"
        },
        {
          "indexed": false,
          "name": "time",
          "type": "uint256"
        }
      ],
      "name": "VehicleFareChanged",
      "type": "event"
    },
    {
      "anonymous": false,
      "inputs": [
        {
          "indexed": false,
          "name": "admin",
          "type": "address"
        },
        {
          "indexed": false,
          "name": "message",
          "type": "string"
        },
        {
          "indexed": false,
          "name": "from",
          "type": "uint256"
        },
        {
          "indexed": false,
          "name": "to",
          "type": "uint256"
        },
        {
          "indexed": false,
          "name": "date",
          "type": "uint256"
        }
      ],
      "name": "FareChanged",
      "type": "event"
    },
    {
      "anonymous": false,
      "inputs": [
        {
          "indexed": false,
          "name": "admin",
          "type": "address"
        },
        {
          "indexed": false,
          "name": "message",
          "type": "string"
        },
        {
          "indexed": false,
          "name": "driver",
          "type": "address"
        },
        {
          "indexed": false,
          "name": "firstname",
          "type": "string"
        },
        {
          "indexed": false,
          "name": "lastname",
          "type": "string"
        },
        {
          "indexed": false,
          "name": "date",
          "type": "uint256"
        }
      ],
      "name": "DriverAdded",
      "type": "event"
    },
    {
      "constant": false,
      "inputs": [
        {
          "name": "_address",
          "type": "address"
        },
        {
          "name": "name",
          "type": "string"
        }
      ],
      "name": "addAdmin",
      "outputs": [
        {
          "name": "success",
          "type": "bool"
        }
      ],
      "payable": false,
      "stateMutability": "nonpayable",
      "type": "function"
    },
    {
      "constant": true,
      "inputs": [],
      "name": "getAdmins",
      "outputs": [
        {
          "name": "",
          "type": "address[]"
        }
      ],
      "payable": false,
      "stateMutability": "view",
      "type": "function"
    },
    {
      "constant": false,
      "inputs": [
        {
          "name": "_address",
          "type": "address"
        },
        {
          "name": "name",
          "type": "string"
        }
      ],
      "name": "addApprover",
      "outputs": [
        {
          "name": "success",
          "type": "bool"
        }
      ],
      "payable": false,
      "stateMutability": "nonpayable",
      "type": "function"
    },
    {
      "constant": true,
      "inputs": [],
      "name": "getApprovers",
      "outputs": [
        {
          "name": "",
          "type": "address[]"
        }
      ],
      "payable": false,
      "stateMutability": "view",
      "type": "function"
    },
    {
      "constant": false,
      "inputs": [
        {
          "name": "fare",
          "type": "uint256"
        }
      ],
      "name": "setBaseFare",
      "outputs": [
        {
          "name": "success",
          "type": "bool"
        }
      ],
      "payable": false,
      "stateMutability": "nonpayable",
      "type": "function"
    },
    {
      "constant": false,
      "inputs": [
        {
          "name": "price",
          "type": "uint256"
        }
      ],
      "name": "setPricePerMinute",
      "outputs": [
        {
          "name": "success",
          "type": "bool"
        }
      ],
      "payable": false,
      "stateMutability": "nonpayable",
      "type": "function"
    },
    {
      "constant": false,
      "inputs": [
        {
          "name": "price",
          "type": "uint256"
        }
      ],
      "name": "setPricePerKM",
      "outputs": [
        {
          "name": "success",
          "type": "bool"
        }
      ],
      "payable": false,
      "stateMutability": "nonpayable",
      "type": "function"
    },
    {
      "constant": false,
      "inputs": [
        {
          "name": "_type",
          "type": "bytes32"
        },
        {
          "name": "_baseFare",
          "type": "uint256"
        },
        {
          "name": "_pricePerKm",
          "type": "uint256"
        },
        {
          "name": "_pricePerMinute",
          "type": "uint256"
        },
        {
          "name": "_perWaitingTime",
          "type": "uint256"
        }
      ],
      "name": "setVehicleFare",
      "outputs": [
        {
          "name": "success",
          "type": "bool"
        }
      ],
      "payable": false,
      "stateMutability": "nonpayable",
      "type": "function"
    },
    {
      "constant": false,
      "inputs": [
        {
          "name": "_type",
          "type": "bytes32"
        }
      ],
      "name": "getVehicleFare",
      "outputs": [
        {
          "name": "_baseFare",
          "type": "uint256"
        },
        {
          "name": "_pricePerKm",
          "type": "uint256"
        },
        {
          "name": "_pricePerMinute",
          "type": "uint256"
        },
        {
          "name": "_perWaitingTime",
          "type": "uint256"
        },
        {
          "name": "_status",
          "type": "bool"
        }
      ],
      "payable": false,
      "stateMutability": "nonpayable",
      "type": "function"
    },
    {
      "constant": false,
      "inputs": [
        {
          "name": "driverAddress",
          "type": "address"
        },
        {
          "name": "firstname",
          "type": "string"
        },
        {
          "name": "lastname",
          "type": "string"
        }
      ],
      "name": "addDriver",
      "outputs": [
        {
          "name": "success",
          "type": "bool"
        }
      ],
      "payable": false,
      "stateMutability": "nonpayable",
      "type": "function"
    },
    {
      "constant": false,
      "inputs": [
        {
          "name": "driverAddress",
          "type": "address"
        }
      ],
      "name": "verifyDriver",
      "outputs": [
        {
          "name": "success",
          "type": "bool"
        }
      ],
      "payable": false,
      "stateMutability": "nonpayable",
      "type": "function"
    },
    {
      "constant": true,
      "inputs": [
        {
          "name": "_address",
          "type": "address"
        }
      ],
      "name": "getDriver",
      "outputs": [
        {
          "name": "",
          "type": "address"
        },
        {
          "name": "",
          "type": "string"
        },
        {
          "name": "",
          "type": "string"
        },
        {
          "name": "",
          "type": "string"
        },
        {
          "name": "",
          "type": "string"
        },
        {
          "name": "",
          "type": "bool"
        }
      ],
      "payable": false,
      "stateMutability": "view",
      "type": "function"
    },
    {
      "constant": true,
      "inputs": [],
      "name": "getDrivers",
      "outputs": [
        {
          "name": "",
          "type": "address[]"
        }
      ],
      "payable": false,
      "stateMutability": "view",
      "type": "function"
    },
    {
      "constant": true,
      "inputs": [],
      "name": "getEarnings",
      "outputs": [
        {
          "name": "",
          "type": "uint256"
        }
      ],
      "payable": false,
      "stateMutability": "view",
      "type": "function"
    },
    {
      "constant": false,
      "inputs": [
        {
          "name": "_address",
          "type": "address"
        },
        {
          "name": "name",
          "type": "string"
        },
        {
          "name": "mobile",
          "type": "string"
        }
      ],
      "name": "addPassenger",
      "outputs": [
        {
          "name": "success",
          "type": "bool"
        }
      ],
      "payable": false,
      "stateMutability": "nonpayable",
      "type": "function"
    },
    {
      "constant": true,
      "inputs": [
        {
          "name": "_address",
          "type": "address"
        }
      ],
      "name": "getPassenger",
      "outputs": [
        {
          "name": "",
          "type": "address"
        },
        {
          "name": "",
          "type": "string"
        },
        {
          "name": "",
          "type": "string"
        },
        {
          "name": "",
          "type": "bool"
        }
      ],
      "payable": false,
      "stateMutability": "view",
      "type": "function"
    },
    {
      "constant": true,
      "inputs": [],
      "name": "getPassengers",
      "outputs": [
        {
          "name": "",
          "type": "address[]"
        }
      ],
      "payable": false,
      "stateMutability": "view",
      "type": "function"
    },
    {
      "constant": false,
      "inputs": [
        {
          "name": "rideId",
          "type": "bytes32"
        },
        {
          "name": "driver",
          "type": "address"
        },
        {
          "name": "passenger",
          "type": "address"
        }
      ],
      "name": "createRide",
      "outputs": [
        {
          "name": "success",
          "type": "bool"
        }
      ],
      "payable": false,
      "stateMutability": "nonpayable",
      "type": "function"
    },
    {
      "constant": false,
      "inputs": [
        {
          "name": "rideId",
          "type": "bytes32"
        },
        {
          "name": "distance",
          "type": "uint256"
        },
        {
          "name": "time",
          "type": "uint256"
        }
      ],
      "name": "computeFare",
      "outputs": [
        {
          "name": "fare",
          "type": "uint256"
        }
      ],
      "payable": false,
      "stateMutability": "nonpayable",
      "type": "function"
    },
    {
      "constant": false,
      "inputs": [
        {
          "name": "rideId",
          "type": "bytes32"
        }
      ],
      "name": "cancelRide",
      "outputs": [
        {
          "name": "success",
          "type": "bool"
        }
      ],
      "payable": false,
      "stateMutability": "nonpayable",
      "type": "function"
    },
    {
      "constant": false,
      "inputs": [
        {
          "name": "rideId",
          "type": "bytes32"
        },
        {
          "name": "price",
          "type": "uint256"
        }
      ],
      "name": "payRide",
      "outputs": [
        {
          "name": "success",
          "type": "bool"
        },
        {
          "name": "change",
          "type": "uint256"
        }
      ],
      "payable": false,
      "stateMutability": "nonpayable",
      "type": "function"
    }
  ],
  "bytecode": "0x606060405234156200001057600080fd5b336000806101000a81548173ffffffffffffffffffffffffffffffffffffffff021916908373ffffffffffffffffffffffffffffffffffffffff16021790555060196005819055506005600681905550600260078190555060006008819055506060604051908101604052806000809054906101000a900473ffffffffffffffffffffffffffffffffffffffff1673ffffffffffffffffffffffffffffffffffffffff1681526020016040805190810160405280600581526020017f41646d696e000000000000000000000000000000000000000000000000000000815250815260200142815250600160008060009054906101000a900473ffffffffffffffffffffffffffffffffffffffff1673ffffffffffffffffffffffffffffffffffffffff1673ffffffffffffffffffffffffffffffffffffffff16815260200190815260200160002060008201518160000160006101000a81548173ffffffffffffffffffffffffffffffffffffffff021916908373ffffffffffffffffffffffffffffffffffffffff1602179055506020820151816001019080519060200190620001bd929190620005ac565b506040820151816002015590505060028054806001018281620001e1919062000633565b916000526020600020900160008060009054906101000a900473ffffffffffffffffffffffffffffffffffffffff16909190916101000a81548173ffffffffffffffffffffffffffffffffffffffff021916908373ffffffffffffffffffffffffffffffffffffffff1602179055505060a06040519081016040528060055481526020016006548152602001600754815260200160085481526020016001151581525060096000820151816000015560208201518160010155604082015181600201556060820151816003015560808201518160040160006101000a81548160ff0219169083151502179055509050506009600e60007f7072697661746500000000000000000000000000000000000000000000000000600019168152602001908152602001600020600082015481600001556001820154816001015560028201548160020155600382015481600301556004820160009054906101000a900460ff168160040160006101000a81548160ff0219169083151502179055509050506009600e60007f7461786900000000000000000000000000000000000000000000000000000000600019168152602001908152602001600020600082015481600001556001820154816001015560028201548160020155600382015481600301556004820160009054906101000a900460ff168160040160006101000a81548160ff0219169083151502179055509050506009600e60007f7576000000000000000000000000000000000000000000000000000000000000600019168152602001908152602001600020600082015481600001556001820154816001015560028201548160020155600382015481600301556004820160009054906101000a900460ff168160040160006101000a81548160ff0219169083151502179055509050506009600e60007f6275730000000000000000000000000000000000000000000000000000000000600019168152602001908152602001600020600082015481600001556001820154816001015560028201548160020155600382015481600301556004820160009054906101000a900460ff168160040160006101000a81548160ff0219169083151502179055509050506009600e60007f7472696379636c65000000000000000000000000000000000000000000000000600019168152602001908152602001600020600082015481600001556001820154816001015560028201548160020155600382015481600301556004820160009054906101000a900460ff168160040160006101000a81548160ff0219169083151502179055509050506200068a565b828054600181600116156101000203166002900490600052602060002090601f016020900481019282601f10620005ef57805160ff191683800117855562000620565b8280016001018555821562000620579182015b828111156200061f57825182559160200191906001019062000602565b5b5090506200062f919062000662565b5090565b8154818355818115116200065d578183600052602060002091820191016200065c919062000662565b5b505050565b6200068791905b808211156200068357600081600090555060010162000669565b5090565b90565b613b6d806200069a6000396000f300606060405260043610610175576000357c0100000000000000000000000000000000000000000000000000000000900463ffffffff168063021b45691461017a5780630b506b01146101dd5780630e6a6d1f1461020657806311117fc814610253578063143e49a8146102b6578063158efb64146102df57806331ae450b146103085780634343b9e41461037257806346def0d8146103dc5780635bc5cf4c1461042b5780635f0a05291461048657806362112d7a146104c157806365c301ab146105985780636ac23fdc146107cc5780636cb3e8ef146108365780637213c5e0146108a05780638ab3f4cc146108df578063906662321461094257806394ffb8191461096b57806398a3f6c6146109ff5780639f05fda914610a62578063b684f7bc14610adf578063c8f891a014610b1e578063d16856ca14610b59578063dd3001e214610bed578063e8413cf014610c28578063e8b7464b14610d84578063f9550dcd14610dad578063fd096d5914610e84575b600080fd5b341561018557600080fd5b6101c3600480803560001916906020019091908035906020019091908035906020019091908035906020019091908035906020019091905050610ed5565b604051808215151515815260200191505060405180910390f35b34156101e857600080fd5b6101f06110bf565b6040518082815260200191505060405180910390f35b341561021157600080fd5b61023d6004808035600019169060200190919080359060200190919080359060200190919050506110c5565b6040518082815260200191505060405180910390f35b341561025e57600080fd5b6102746004808035906020019091905050611204565b604051808273ffffffffffffffffffffffffffffffffffffffff1673ffffffffffffffffffffffffffffffffffffffff16815260200191505060405180910390f35b34156102c157600080fd5b6102c9611243565b6040518082815260200191505060405180910390f35b34156102ea57600080fd5b6102f2611249565b6040518082815260200191505060405180910390f35b341561031357600080fd5b61031b61124f565b6040518080602001828103825283818151815260200191508051906020019060200280838360005b8381101561035e578082015181840152602081019050610343565b505050509050019250505060405180910390f35b341561037d57600080fd5b61038561133e565b6040518080602001828103825283818151815260200191508051906020019060200280838360005b838110156103c85780820151818401526020810190506103ad565b505050509050019250505060405180910390f35b34156103e757600080fd5b61040a6004808035600019169060200190919080359060200190919050506113d2565b60405180831515151581526020018281526020019250505060405180910390f35b341561043657600080fd5b610450600480803560001916906020019091905050611560565b60405180868152602001858152602001848152602001838152602001821515151581526020019550505050505060405180910390f35b341561049157600080fd5b6104a760048080359060200190919050506116e1565b604051808215151515815260200191505060405180910390f35b34156104cc57600080fd5b61057e600480803573ffffffffffffffffffffffffffffffffffffffff1690602001909190803590602001908201803590602001908080601f0160208091040260200160405190810160405280939291908181526020018383808284378201915050505050509190803590602001908201803590602001908080601f01602080910402602001604051908101604052809392919081815260200183838082843782019150505050505091905050611830565b604051808215151515815260200191505060405180910390f35b34156105a357600080fd5b6105cf600480803573ffffffffffffffffffffffffffffffffffffffff16906020019091905050611ace565b604051808773ffffffffffffffffffffffffffffffffffffffff1673ffffffffffffffffffffffffffffffffffffffff168152602001806020018060200180602001806020018615151515815260200185810385528a818151815260200191508051906020019080838360005b8381101561065757808201518184015260208101905061063c565b50505050905090810190601f1680156106845780820380516001836020036101000a031916815260200191505b50858103845289818151815260200191508051906020019080838360005b838110156106bd5780820151818401526020810190506106a2565b50505050905090810190601f1680156106ea5780820380516001836020036101000a031916815260200191505b50858103835288818151815260200191508051906020019080838360005b83811015610723578082015181840152602081019050610708565b50505050905090810190601f1680156107505780820380516001836020036101000a031916815260200191505b50858103825287818151815260200191508051906020019080838360005b8381101561078957808201518184015260208101905061076e565b50505050905090810190601f1680156107b65780820380516001836020036101000a031916815260200191505b509a505050505050505050505060405180910390f35b34156107d757600080fd5b6107df611fbc565b6040518080602001828103825283818151815260200191508051906020019060200280838360005b83811015610822578082015181840152602081019050610807565b505050509050019250505060405180910390f35b341561084157600080fd5b610849612050565b6040518080602001828103825283818151815260200191508051906020019060200280838360005b8381101561088c578082015181840152602081019050610871565b505050509050019250505060405180910390f35b34156108ab57600080fd5b6108c1600480803590602001909190505061216c565b60405180826000191660001916815260200191505060405180910390f35b34156108ea57600080fd5b6109006004808035906020019091905050612190565b604051808273ffffffffffffffffffffffffffffffffffffffff1673ffffffffffffffffffffffffffffffffffffffff16815260200191505060405180910390f35b341561094d57600080fd5b6109556121cf565b6040518082815260200191505060405180910390f35b341561097657600080fd5b6109e5600480803573ffffffffffffffffffffffffffffffffffffffff1690602001909190803590602001908201803590602001908080601f016020809104026020016040519081016040528093929190818152602001838380828437820191505050505050919050506122a0565b604051808215151515815260200191505060405180910390f35b3415610a0a57600080fd5b610a2060048080359060200190919050506126ca565b604051808273ffffffffffffffffffffffffffffffffffffffff1673ffffffffffffffffffffffffffffffffffffffff16815260200191505060405180910390f35b3415610a6d57600080fd5b610ac560048080356000191690602001909190803573ffffffffffffffffffffffffffffffffffffffff1690602001909190803573ffffffffffffffffffffffffffffffffffffffff16906020019091905050612709565b604051808215151515815260200191505060405180910390f35b3415610aea57600080fd5b610b0460048080356000191690602001909190505061290e565b604051808215151515815260200191505060405180910390f35b3415610b2957600080fd5b610b3f6004808035906020019091905050612afc565b604051808215151515815260200191505060405180910390f35b3415610b6457600080fd5b610bd3600480803573ffffffffffffffffffffffffffffffffffffffff1690602001909190803590602001908201803590602001908080601f01602080910402602001604051908101604052809392919081815260200183838082843782019150505050505091905050612c4b565b604051808215151515815260200191505060405180910390f35b3415610bf857600080fd5b610c0e6004808035906020019091905050612e7e565b604051808215151515815260200191505060405180910390f35b3415610c3357600080fd5b610c5f600480803573ffffffffffffffffffffffffffffffffffffffff16906020019091905050612fcd565b604051808573ffffffffffffffffffffffffffffffffffffffff1673ffffffffffffffffffffffffffffffffffffffff168152602001806020018060200184151515158152602001838103835286818151815260200191508051906020019080838360005b83811015610cdf578082015181840152602081019050610cc4565b50505050905090810190601f168015610d0c5780820380516001836020036101000a031916815260200191505b50838103825285818151815260200191508051906020019080838360005b83811015610d45578082015181840152602081019050610d2a565b50505050905090810190601f168015610d725780820380516001836020036101000a031916815260200191505b50965050505050505060405180910390f35b3415610d8f57600080fd5b610d976132e9565b6040518082815260200191505060405180910390f35b3415610db857600080fd5b610e6a600480803573ffffffffffffffffffffffffffffffffffffffff1690602001909190803590602001908201803590602001908080601f0160208091040260200160405190810160405280939291908181526020018383808284378201915050505050509190803590602001908201803590602001908080601f016020809104026020016040519081016040528093929190818152602001838380828437820191505050505050919050506132ef565b604051808215151515815260200191505060405180910390f35b3415610e8f57600080fd5b610ebb600480803573ffffffffffffffffffffffffffffffffffffffff16906020019091905050613800565b604051808215151515815260200191505060405180910390f35b600080600160003373ffffffffffffffffffffffffffffffffffffffff1673ffffffffffffffffffffffffffffffffffffffff16815260200190815260200160002060000160009054906101000a900473ffffffffffffffffffffffffffffffffffffffff1673ffffffffffffffffffffffffffffffffffffffff1614151515610f5e57600080fd5b60a06040519081016040528086815260200185815260200184815260200183815260200160011515815250600e600088600019166000191681526020019081526020016000206000820151816000015560208201518160010155604082015181600201556060820151816003015560808201518160040160006101000a81548160ff0219169083151502179055509050507fe3a4ab95db9a6984e623719c8b8c0b005a6e685a36cb3ef1f515e583935da27c33878787878742604051808873ffffffffffffffffffffffffffffffffffffffff1673ffffffffffffffffffffffffffffffffffffffff168152602001807f557064617465642056656869636c652046617265000000000000000000000000815250602001876000191660001916815260200186815260200185815260200184815260200183815260200182815260200197505050505050505060405180910390a16001905095945050505050565b60055481565b600083806000191660136000836000191660001916815260200190815260200160002060000154600019161415156110fc57600080fd5b83601360008760001916600019168152602001908152602001600020600301819055508260136000876000191660001916815260200190815260200160002060040181905550600754830260065485026005540101601360008760001916600019168152602001908152602001600020600501819055506040805190810160405280600a81526020017f696e70726f67726573730000000000000000000000000000000000000000000081525060136000876000191660001916815260200190815260200160002060060190805190602001906111da929190613977565b50601360008660001916600019168152602001908152602001600020600501549150509392505050565b60028181548110151561121357fe5b90600052602060002090016000915054906101000a900473ffffffffffffffffffffffffffffffffffffffff1681565b60085481565b60065481565b6112576139f7565b6000809054906101000a900473ffffffffffffffffffffffffffffffffffffffff1673ffffffffffffffffffffffffffffffffffffffff163373ffffffffffffffffffffffffffffffffffffffff161415156112b257600080fd5b600280548060200260200160405190810160405280929190818152602001828054801561133457602002820191906000526020600020905b8160009054906101000a900473ffffffffffffffffffffffffffffffffffffffff1673ffffffffffffffffffffffffffffffffffffffff16815260200190600101908083116112ea575b5050505050905090565b6113466139f7565b60108054806020026020016040519081016040528092919081815260200182805480156113c857602002820191906000526020600020905b8160009054906101000a900473ffffffffffffffffffffffffffffffffffffffff1673ffffffffffffffffffffffffffffffffffffffff168152602001906001019080831161137e575b5050505050905090565b6000806000848060001916601360008360001916600019168152602001908152602001600020600001546000191614151561140c57600080fd5b8460136000886000191660001916815260200190815260200160002060050154111561143757600080fd5b84601360008860001916600019168152602001908152602001600020600501540391506040805190810160405280600981526020017f636f6d706c65746564000000000000000000000000000000000000000000000081525060136000886000191660001916815260200190815260200160002060060190805190602001906114c1929190613977565b5084600f6000601360008a6000191660001916815260200190815260200160002060010160009054906101000a900473ffffffffffffffffffffffffffffffffffffffff1673ffffffffffffffffffffffffffffffffffffffff1673ffffffffffffffffffffffffffffffffffffffff168152602001908152602001600020600501600082825401925050819055506001829350935050509250929050565b600080600080600080600160003373ffffffffffffffffffffffffffffffffffffffff1673ffffffffffffffffffffffffffffffffffffffff16815260200190815260200160002060000160009054906101000a900473ffffffffffffffffffffffffffffffffffffffff1673ffffffffffffffffffffffffffffffffffffffff16141515156115ef57600080fd5b600e6000876000191660001916815260200190815260200160002060040160009054906101000a900460ff16151561162657600080fd5b600e6000876000191660001916815260200190815260200160002060000154600e6000886000191660001916815260200190815260200160002060010154600e6000896000191660001916815260200190815260200160002060020154600e60008a6000191660001916815260200190815260200160002060030154600e60008b6000191660001916815260200190815260200160002060040160009054906101000a900460ff169450945094509450945091939590929450565b600080600160003373ffffffffffffffffffffffffffffffffffffffff1673ffffffffffffffffffffffffffffffffffffffff16815260200190815260200160002060000160009054906101000a900473ffffffffffffffffffffffffffffffffffffffff1673ffffffffffffffffffffffffffffffffffffffff161415151561176a57600080fd5b7f6febc285419d58ea53ae8f3d8781d649b2c02d85cb29f54722cfdf676f26a06f336006548442604051808573ffffffffffffffffffffffffffffffffffffffff1673ffffffffffffffffffffffffffffffffffffffff16815260200180602001858152602001848152602001838152602001828103825260148152602001807f5570646174656420507269636520706572204b4d0000000000000000000000008152506020019550505050505060405180910390a18160068190555060019050919050565b600080600160003373ffffffffffffffffffffffffffffffffffffffff1673ffffffffffffffffffffffffffffffffffffffff16815260200190815260200160002060000160009054906101000a900473ffffffffffffffffffffffffffffffffffffffff1673ffffffffffffffffffffffffffffffffffffffff16141515156118b957600080fd5b836000601160008373ffffffffffffffffffffffffffffffffffffffff1673ffffffffffffffffffffffffffffffffffffffff16815260200190815260200160002060000160009054906101000a900473ffffffffffffffffffffffffffffffffffffffff1673ffffffffffffffffffffffffffffffffffffffff1614151561194157600080fd5b6080604051908101604052808673ffffffffffffffffffffffffffffffffffffffff16815260200185815260200184815260200160001515815250601160008773ffffffffffffffffffffffffffffffffffffffff1673ffffffffffffffffffffffffffffffffffffffff16815260200190815260200160002060008201518160000160006101000a81548173ffffffffffffffffffffffffffffffffffffffff021916908373ffffffffffffffffffffffffffffffffffffffff1602179055506020820151816001019080519060200190611a1e929190613a0b565b506040820151816002019080519060200190611a3b929190613a0b565b5060608201518160030160006101000a81548160ff02191690831515021790555090505060128054806001018281611a739190613a8b565b9160005260206000209001600087909190916101000a81548173ffffffffffffffffffffffffffffffffffffffff021916908373ffffffffffffffffffffffffffffffffffffffff1602179055505060019150509392505050565b6000611ad8613ab7565b611ae0613ab7565b611ae8613ab7565b611af0613ab7565b6000866000600f60008373ffffffffffffffffffffffffffffffffffffffff1673ffffffffffffffffffffffffffffffffffffffff16815260200190815260200160002060000160009054906101000a900473ffffffffffffffffffffffffffffffffffffffff1673ffffffffffffffffffffffffffffffffffffffff1614151515611b7b57600080fd5b600f60008973ffffffffffffffffffffffffffffffffffffffff1673ffffffffffffffffffffffffffffffffffffffff16815260200190815260200160002060000160009054906101000a900473ffffffffffffffffffffffffffffffffffffffff16600f60008a73ffffffffffffffffffffffffffffffffffffffff1673ffffffffffffffffffffffffffffffffffffffff168152602001908152602001600020600101600f60008b73ffffffffffffffffffffffffffffffffffffffff1673ffffffffffffffffffffffffffffffffffffffff168152602001908152602001600020600201600f60008c73ffffffffffffffffffffffffffffffffffffffff1673ffffffffffffffffffffffffffffffffffffffff168152602001908152602001600020600301600f60008d73ffffffffffffffffffffffffffffffffffffffff1673ffffffffffffffffffffffffffffffffffffffff168152602001908152602001600020600401600f60008e73ffffffffffffffffffffffffffffffffffffffff1673ffffffffffffffffffffffffffffffffffffffff16815260200190815260200160002060060160009054906101000a900460ff16848054600181600116156101000203166002900480601f016020809104026020016040519081016040528092919081815260200182805460018160011615610100020316600290048015611dcb5780601f10611da057610100808354040283529160200191611dcb565b820191906000526020600020905b815481529060010190602001808311611dae57829003601f168201915b50505050509450838054600181600116156101000203166002900480601f016020809104026020016040519081016040528092919081815260200182805460018160011615610100020316600290048015611e675780601f10611e3c57610100808354040283529160200191611e67565b820191906000526020600020905b815481529060010190602001808311611e4a57829003601f168201915b50505050509350828054600181600116156101000203166002900480601f016020809104026020016040519081016040528092919081815260200182805460018160011615610100020316600290048015611f035780601f10611ed857610100808354040283529160200191611f03565b820191906000526020600020905b815481529060010190602001808311611ee657829003601f168201915b50505050509250818054600181600116156101000203166002900480601f016020809104026020016040519081016040528092919081815260200182805460018160011615610100020316600290048015611f9f5780601f10611f7457610100808354040283529160200191611f9f565b820191906000526020600020905b815481529060010190602001808311611f8257829003601f168201915b505050505091509650965096509650965096505091939550919395565b611fc46139f7565b601280548060200260200160405190810160405280929190818152602001828054801561204657602002820191906000526020600020905b8160009054906101000a900473ffffffffffffffffffffffffffffffffffffffff1673ffffffffffffffffffffffffffffffffffffffff1681526020019060010190808311611ffc575b5050505050905090565b6120586139f7565b6000600160003373ffffffffffffffffffffffffffffffffffffffff1673ffffffffffffffffffffffffffffffffffffffff16815260200190815260200160002060000160009054906101000a900473ffffffffffffffffffffffffffffffffffffffff1673ffffffffffffffffffffffffffffffffffffffff16141515156120e057600080fd5b600480548060200260200160405190810160405280929190818152602001828054801561216257602002820191906000526020600020905b8160009054906101000a900473ffffffffffffffffffffffffffffffffffffffff1673ffffffffffffffffffffffffffffffffffffffff1681526020019060010190808311612118575b5050505050905090565b60148181548110151561217b57fe5b90600052602060002090016000915090505481565b60048181548110151561219f57fe5b90600052602060002090016000915054906101000a900473ffffffffffffffffffffffffffffffffffffffff1681565b600080600f60003373ffffffffffffffffffffffffffffffffffffffff1673ffffffffffffffffffffffffffffffffffffffff16815260200190815260200160002060000160009054906101000a900473ffffffffffffffffffffffffffffffffffffffff1673ffffffffffffffffffffffffffffffffffffffff161415151561225857600080fd5b600f60003373ffffffffffffffffffffffffffffffffffffffff1673ffffffffffffffffffffffffffffffffffffffff16815260200190815260200160002060050154905090565b600080600160003373ffffffffffffffffffffffffffffffffffffffff1673ffffffffffffffffffffffffffffffffffffffff16815260200190815260200160002060000160009054906101000a900473ffffffffffffffffffffffffffffffffffffffff1673ffffffffffffffffffffffffffffffffffffffff161415151561232957600080fd5b6000600360008573ffffffffffffffffffffffffffffffffffffffff1673ffffffffffffffffffffffffffffffffffffffff16815260200190815260200160002060000160009054906101000a900473ffffffffffffffffffffffffffffffffffffffff1673ffffffffffffffffffffffffffffffffffffffff161415156123b057600080fd5b6080604051908101604052808473ffffffffffffffffffffffffffffffffffffffff168152602001838152602001600160003373ffffffffffffffffffffffffffffffffffffffff1673ffffffffffffffffffffffffffffffffffffffff168152602001908152602001600020606060405190810160405290816000820160009054906101000a900473ffffffffffffffffffffffffffffffffffffffff1673ffffffffffffffffffffffffffffffffffffffff1673ffffffffffffffffffffffffffffffffffffffff168152602001600182018054600181600116156101000203166002900480601f0160208091040260200160405190810160405280929190818152602001828054600181600116156101000203166002900480156125185780601f106124ed57610100808354040283529160200191612518565b820191906000526020600020905b8154815290600101906020018083116124fb57829003601f168201915b50505050508152602001600282015481525050815260200142815250600360008573ffffffffffffffffffffffffffffffffffffffff1673ffffffffffffffffffffffffffffffffffffffff16815260200190815260200160002060008201518160000160006101000a81548173ffffffffffffffffffffffffffffffffffffffff021916908373ffffffffffffffffffffffffffffffffffffffff16021790555060208201518160010190805190602001906125d6929190613a0b565b5060408201518160020160008201518160000160006101000a81548173ffffffffffffffffffffffffffffffffffffffff021916908373ffffffffffffffffffffffffffffffffffffffff1602179055506020820151816001019080519060200190612643929190613a0b565b5060408201518160020155505060608201518160050155905050600480548060010182816126719190613a8b565b9160005260206000209001600085909190916101000a81548173ffffffffffffffffffffffffffffffffffffffff021916908373ffffffffffffffffffffffffffffffffffffffff160217905550506001905092915050565b6010818154811015156126d957fe5b90600052602060002090016000915054906101000a900473ffffffffffffffffffffffffffffffffffffffff1681565b6000838060001916601360008360001916600019168152602001908152602001600020600001546000191614151561274057600080fd5b60e060405190810160405280866000191681526020018573ffffffffffffffffffffffffffffffffffffffff1681526020018473ffffffffffffffffffffffffffffffffffffffff1681526020016000815260200160008152602001600081526020016040805190810160405280600b81526020017f696e697469616c697a65640000000000000000000000000000000000000000008152508152506013600087600019166000191681526020019081526020016000206000820151816000019060001916905560208201518160010160006101000a81548173ffffffffffffffffffffffffffffffffffffffff021916908373ffffffffffffffffffffffffffffffffffffffff16021790555060408201518160020160006101000a81548173ffffffffffffffffffffffffffffffffffffffff021916908373ffffffffffffffffffffffffffffffffffffffff160217905550606082015181600301556080820151816004015560a0820151816005015560c08201518160060190805190602001906128cf929190613a0b565b50905050601480548060010182816128e79190613acb565b91600052602060002090016000879091909150906000191690555060019150509392505050565b6000818060001916601360008360001916600019168152602001908152602001600020600001546000191614151561294557600080fd5b823373ffffffffffffffffffffffffffffffffffffffff1660136000836000191660001916815260200190815260200160002060010160009054906101000a900473ffffffffffffffffffffffffffffffffffffffff1673ffffffffffffffffffffffffffffffffffffffff161480612a2757503373ffffffffffffffffffffffffffffffffffffffff1660136000836000191660001916815260200190815260200160002060020160009054906101000a900473ffffffffffffffffffffffffffffffffffffffff1673ffffffffffffffffffffffffffffffffffffffff16145b80612a7e57503373ffffffffffffffffffffffffffffffffffffffff166000809054906101000a900473ffffffffffffffffffffffffffffffffffffffff1673ffffffffffffffffffffffffffffffffffffffff16145b1515612a8957600080fd5b6040805190810160405280600981526020017f63616e63656c6c656400000000000000000000000000000000000000000000008152506013600086600019166000191681526020019081526020016000206006019080519060200190612af0929190613977565b50600192505050919050565b600080600160003373ffffffffffffffffffffffffffffffffffffffff1673ffffffffffffffffffffffffffffffffffffffff16815260200190815260200160002060000160009054906101000a900473ffffffffffffffffffffffffffffffffffffffff1673ffffffffffffffffffffffffffffffffffffffff1614151515612b8557600080fd5b7f6febc285419d58ea53ae8f3d8781d649b2c02d85cb29f54722cfdf676f26a06f336005548442604051808573ffffffffffffffffffffffffffffffffffffffff1673ffffffffffffffffffffffffffffffffffffffff16815260200180602001858152602001848152602001838152602001828103825260118152602001807f55706461746564204261736520466172650000000000000000000000000000008152506020019550505050505060405180910390a18160058190555060019050919050565b60008060009054906101000a900473ffffffffffffffffffffffffffffffffffffffff1673ffffffffffffffffffffffffffffffffffffffff163373ffffffffffffffffffffffffffffffffffffffff16141515612ca857600080fd5b6000600160008573ffffffffffffffffffffffffffffffffffffffff1673ffffffffffffffffffffffffffffffffffffffff16815260200190815260200160002060000160009054906101000a900473ffffffffffffffffffffffffffffffffffffffff1673ffffffffffffffffffffffffffffffffffffffff16141515612d2f57600080fd5b6060604051908101604052808473ffffffffffffffffffffffffffffffffffffffff16815260200183815260200142815250600160008573ffffffffffffffffffffffffffffffffffffffff1673ffffffffffffffffffffffffffffffffffffffff16815260200190815260200160002060008201518160000160006101000a81548173ffffffffffffffffffffffffffffffffffffffff021916908373ffffffffffffffffffffffffffffffffffffffff1602179055506020820151816001019080519060200190612e03929190613a0b565b506040820151816002015590505060028054806001018281612e259190613a8b565b9160005260206000209001600085909190916101000a81548173ffffffffffffffffffffffffffffffffffffffff021916908373ffffffffffffffffffffffffffffffffffffffff160217905550506001905092915050565b600080600160003373ffffffffffffffffffffffffffffffffffffffff1673ffffffffffffffffffffffffffffffffffffffff16815260200190815260200160002060000160009054906101000a900473ffffffffffffffffffffffffffffffffffffffff1673ffffffffffffffffffffffffffffffffffffffff1614151515612f0757600080fd5b7f6febc285419d58ea53ae8f3d8781d649b2c02d85cb29f54722cfdf676f26a06f336007548442604051808573ffffffffffffffffffffffffffffffffffffffff1673ffffffffffffffffffffffffffffffffffffffff16815260200180602001858152602001848152602001838152602001828103825260188152602001807f5570646174656420507269636520706572204d696e75746500000000000000008152506020019550505050505060405180910390a18160078190555060019050919050565b6000612fd7613ab7565b612fdf613ab7565b6000846000601160008373ffffffffffffffffffffffffffffffffffffffff1673ffffffffffffffffffffffffffffffffffffffff16815260200190815260200160002060000160009054906101000a900473ffffffffffffffffffffffffffffffffffffffff1673ffffffffffffffffffffffffffffffffffffffff161415151561306a57600080fd5b601160008773ffffffffffffffffffffffffffffffffffffffff1673ffffffffffffffffffffffffffffffffffffffff16815260200190815260200160002060000160009054906101000a900473ffffffffffffffffffffffffffffffffffffffff16601160008873ffffffffffffffffffffffffffffffffffffffff1673ffffffffffffffffffffffffffffffffffffffff168152602001908152602001600020600101601160008973ffffffffffffffffffffffffffffffffffffffff1673ffffffffffffffffffffffffffffffffffffffff168152602001908152602001600020600201601160008a73ffffffffffffffffffffffffffffffffffffffff1673ffffffffffffffffffffffffffffffffffffffff16815260200190815260200160002060030160009054906101000a900460ff16828054600181600116156101000203166002900480601f0160208091040260200160405190810160405280929190818152602001828054600181600116156101000203166002900480156132365780601f1061320b57610100808354040283529160200191613236565b820191906000526020600020905b81548152906001019060200180831161321957829003601f168201915b50505050509250818054600181600116156101000203166002900480601f0160208091040260200160405190810160405280929190818152602001828054600181600116156101000203166002900480156132d25780601f106132a7576101008083540402835291602001916132d2565b820191906000526020600020905b8154815290600101906020018083116132b557829003601f168201915b505050505091509450945094509450509193509193565b60075481565b600080600160003373ffffffffffffffffffffffffffffffffffffffff1673ffffffffffffffffffffffffffffffffffffffff16815260200190815260200160002060000160009054906101000a900473ffffffffffffffffffffffffffffffffffffffff1673ffffffffffffffffffffffffffffffffffffffff161415151561337857600080fd5b836000600f60008373ffffffffffffffffffffffffffffffffffffffff1673ffffffffffffffffffffffffffffffffffffffff16815260200190815260200160002060000160009054906101000a900473ffffffffffffffffffffffffffffffffffffffff1673ffffffffffffffffffffffffffffffffffffffff1614151561340057600080fd5b60e0604051908101604052808673ffffffffffffffffffffffffffffffffffffffff1681526020018581526020018481526020016040805190810160405280600181526020017f300000000000000000000000000000000000000000000000000000000000000081525081526020016040805190810160405280600181526020017f300000000000000000000000000000000000000000000000000000000000000081525081526020016000815260200160001515815250600f60008773ffffffffffffffffffffffffffffffffffffffff1673ffffffffffffffffffffffffffffffffffffffff16815260200190815260200160002060008201518160000160006101000a81548173ffffffffffffffffffffffffffffffffffffffff021916908373ffffffffffffffffffffffffffffffffffffffff160217905550602082015181600101908051906020019061355a929190613a0b565b506040820151816002019080519060200190613577929190613a0b565b506060820151816003019080519060200190613594929190613a0b565b5060808201518160040190805190602001906135b1929190613a0b565b5060a0820151816005015560c08201518160060160006101000a81548160ff021916908315150217905550905050601080548060010182816135f39190613a8b565b9160005260206000209001600087909190916101000a81548173ffffffffffffffffffffffffffffffffffffffff021916908373ffffffffffffffffffffffffffffffffffffffff160217905550507f47fe05668ba03c3712d11418ac164f46e5822a19472bdb1de5da5589aedebe5e3386868642604051808673ffffffffffffffffffffffffffffffffffffffff1673ffffffffffffffffffffffffffffffffffffffff168152602001806020018673ffffffffffffffffffffffffffffffffffffffff1673ffffffffffffffffffffffffffffffffffffffff16815260200180602001806020018581526020018481038452600c8152602001807f4164646564204472697665720000000000000000000000000000000000000000815250602001848103835287818151815260200191508051906020019080838360005b8381101561374e578082015181840152602081019050613733565b50505050905090810190601f16801561377b5780820380516001836020036101000a031916815260200191505b50848103825286818151815260200191508051906020019080838360005b838110156137b4578082015181840152602081019050613799565b50505050905090810190601f1680156137e15780820380516001836020036101000a031916815260200191505b509850505050505050505060405180910390a160019150509392505050565b600080600160003373ffffffffffffffffffffffffffffffffffffffff1673ffffffffffffffffffffffffffffffffffffffff16815260200190815260200160002060000160009054906101000a900473ffffffffffffffffffffffffffffffffffffffff1673ffffffffffffffffffffffffffffffffffffffff161415151561388957600080fd5b816000600f60008373ffffffffffffffffffffffffffffffffffffffff1673ffffffffffffffffffffffffffffffffffffffff16815260200190815260200160002060000160009054906101000a900473ffffffffffffffffffffffffffffffffffffffff1673ffffffffffffffffffffffffffffffffffffffff161415151561391257600080fd5b6001600f60008573ffffffffffffffffffffffffffffffffffffffff1673ffffffffffffffffffffffffffffffffffffffff16815260200190815260200160002060060160006101000a81548160ff0219169083151502179055506001915050919050565b828054600181600116156101000203166002900490600052602060002090601f016020900481019282601f106139b857805160ff19168380011785556139e6565b828001600101855582156139e6579182015b828111156139e55782518255916020019190600101906139ca565b5b5090506139f39190613af7565b5090565b602060405190810160405280600081525090565b828054600181600116156101000203166002900490600052602060002090601f016020900481019282601f10613a4c57805160ff1916838001178555613a7a565b82800160010185558215613a7a579182015b82811115613a79578251825591602001919060010190613a5e565b5b509050613a879190613af7565b5090565b815481835581811511613ab257818360005260206000209182019101613ab19190613af7565b5b505050565b602060405190810160405280600081525090565b815481835581811511613af257818360005260206000209182019101613af19190613b1c565b5b505050565b613b1991905b80821115613b15576000816000905550600101613afd565b5090565b90565b613b3e91905b80821115613b3a576000816000905550600101613b22565b5090565b905600a165627a7a72305820cfa068c55041316df74d17f7b27d004eccaf398c2b90a309fcc1fafc593c20710029",
  "source": "pragma solidity ^0.4.17;\n\ncontract Dryb {\n\n  // the owner can add multiple admin\n  // the admin can add multiple approver\n  address owner;\n\n  struct Admin {\n    address _address;\n    string name;\n    uint256 addedAt;\n  }\n\n  struct Approver {\n    address _address;\n    string name;\n    Admin addedBy;\n    uint256 addedAt;\n  }\n\n  mapping(address => Admin) admins;\n  address[] public adminList;\n\n  mapping(address => Approver) approvers;\n  address[] public approverList;\n\n\n  uint public baseFare;\n  uint public pricePerKm;\n  uint public pricePerMinute;\n  uint public perWaitingTime;\n\n  enum RideType { PRIVATE, TAXI, UV, BUS, ExpressVan, Bus, TRICYCLE }\n  enum RideStatus { Requested, PickUp, InTransit, CancelledByDriver, CancelledByPassenger, Completed }\n\n\n  struct Fare {\n    uint256 baseFare;\n    uint256 perKm;\n    uint256 perMinute;\n    uint256 perWaitingTime;\n    bool status;\n  }\n\n  Fare base;\n\n  mapping(bytes32 => Fare) vehicle;\n\n\n  struct Driver {\n    address _address;\n    string firstname;\n    string lastname;\n    string longitude;\n    string latitude;\n    uint256 earnings;\n    bool isVerified;\n  }\n\n  mapping(address => Driver) drivers;\n  address[] public driverList;\n\n  struct Passenger {\n    address _address;\n    string name;\n    string mobile;\n    bool isActive;\n  }\n\n  mapping(address => Passenger) passengers;\n  address[] passengerList;\n\n  struct Ride {\n    bytes32 _id;\n    address driver;\n    address passenger;\n    uint256 distance;\n    uint256 time;\n    uint256 price;\n    string status;\n  }\n\n  mapping(bytes32 => Ride) rides;\n  bytes32[] public rideList;\n\n  /*\n    ====================\n    ===== EVENTS =======\n    ====================\n  */\n  event VehicleFareChanged(address admin, bytes32 message, bytes32 vehicle, uint256 _baseFare, uint256 _pricePerKm, uint256 _pricePerMinute, uint256 _perWaitingTime, uint256 time);\n  event FareChanged(address admin, string message, uint256 from, uint256 to, uint256 date);\n  event DriverAdded(address admin, string message, address driver, string firstname, string lastname, uint256 date);\n\n\n  /*\n    ==========================\n    =======  MODIFIERS =======\n    ==========================\n  */\n\n  modifier isOwner() {\n     require(msg.sender == owner);\n     _;\n  }\n\n  modifier isAdmin() {\n    require(admins[msg.sender]._address != 0x0);\n    _;\n  }\n\n  modifier isApprover() {\n    require(approvers[msg.sender]._address != 0x0);\n    _;\n  }\n\n  modifier isAdminisitrativeUser() {\n    require(approvers[msg.sender]._address != 0x0 || admins[msg.sender]._address != 0x0 || owner == msg.sender);\n    _;\n  }\n\n  modifier isDriver() {\n    require(drivers[msg.sender]._address != 0x0);\n    _;\n  }\n\n  modifier diverNotExist(address _address) {\n    if (drivers[_address]._address != 0x0) revert();\n    _;\n  }\n\n  modifier driverExist(address _address) {\n    require(drivers[_address]._address != 0x0);\n    _;\n  }\n\n  modifier passengerNotExist(address _address) {\n    if (passengers[_address]._address != 0x0) revert();\n    _;\n  }\n\n  modifier passengerExist(address _address) {\n    require(passengers[_address]._address != 0x0);\n    _;\n  }\n\n  modifier rideExist(bytes32 rideId) {\n    require(rides[rideId]._id == rideId);\n    _;\n  }\n\n  modifier rideNotExist(bytes32 rideId) {\n    if (rides[rideId]._id != rideId) revert();\n    _;\n  }\n\n  modifier rideUsers(bytes32 rideId) {\n    require(rides[rideId].driver == msg.sender || rides[rideId].passenger == msg.sender || owner == msg.sender);\n    _;\n  }\n\n  modifier isRidePassenger(bytes32 rideId) {\n    require(rides[rideId].passenger == msg.sender);\n    _;\n  }\n\n  modifier isRideDriver(bytes32 rideId) {\n    require(rides[rideId].driver == msg.sender);\n    _;\n  }\n\n\n  /*\n    ==========================\n    ======  CONSTRUCTOR ======\n    ==========================\n  */\n\n  function Dryb() public {\n    owner = msg.sender;\n    baseFare = 25;\n    pricePerKm = 5;\n    pricePerMinute = 2;\n    perWaitingTime = 0;\n    admins[owner] = Admin(owner, 'Admin', now);\n    adminList.push(owner);\n\n    base = Fare(baseFare, pricePerKm, pricePerMinute, perWaitingTime, true);\n    vehicle['private'] = base;\n    vehicle['taxi'] = base;\n    vehicle['uv'] = base;\n    vehicle['bus'] = base;\n    vehicle['tricycle'] = base;\n  }\n\n\n  /*\n    ==========================\n    =======  METHODS =========\n    ==========================\n  */\n\n  // // // // // // // //\n  // Admin Management //\n  // // // // // // //\n\n  function addAdmin(address _address, string name) public isOwner returns (bool success) {\n    require(admins[_address]._address == 0x0);\n    admins[_address] = Admin(_address, name, now);\n    adminList.push(_address);\n    return true;\n  }\n\n  function getAdmins() constant public isOwner returns (address[]) {\n    return adminList;\n  }\n\n  function addApprover(address _address, string name) public isAdmin returns (bool success) {\n    require(approvers[_address]._address == 0x0);\n    approvers[_address] = Approver(_address, name, admins[msg.sender], now);\n    approverList.push(_address);\n    return true;\n  }\n\n  function getApprovers() public constant isAdmin returns (address[]) {\n    return approverList;\n  }\n\n  // // // // // // // //\n  // Fare management  //\n  // // // // // // //\n\n  function setBaseFare(uint256 fare) public isAdmin returns (bool success) {\n    FareChanged(msg.sender, 'Updated Base Fare', baseFare, fare, now);\n    baseFare = fare;\n    return true;\n  }\n\n  function setPricePerMinute(uint256 price) public isAdmin returns (bool success) {\n    FareChanged(msg.sender, 'Updated Price per Minute', pricePerMinute, price, now);\n    pricePerMinute = price;\n    return true;\n  }\n\n  function setPricePerKM(uint256 price) public isAdmin returns (bool success) {\n    FareChanged(msg.sender, 'Updated Price per KM', pricePerKm, price, now);\n    pricePerKm = price;\n    return true;\n  }\n\n  function setVehicleFare(bytes32 _type, uint256 _baseFare, uint256 _pricePerKm, uint256 _pricePerMinute, uint256 _perWaitingTime) public isAdmin returns (bool success) {\n    vehicle[_type] = Fare(_baseFare, _pricePerKm, _pricePerMinute, _perWaitingTime, true);\n    VehicleFareChanged(msg.sender, 'Updated Vehicle Fare', _type, _baseFare, _pricePerKm, _pricePerMinute, _perWaitingTime, now);\n    return true;\n  }\n\n  function getVehicleFare(bytes32 _type) public isAdmin returns (uint256 _baseFare, uint256 _pricePerKm, uint256 _pricePerMinute, uint256 _perWaitingTime, bool _status) {\n    require(vehicle[_type].status);\n    return (vehicle[_type].baseFare, vehicle[_type].perKm, vehicle[_type].perMinute, vehicle[_type].perWaitingTime, vehicle[_type].status);\n  }\n\n  // // // // // // // //\n  // Driver Management //\n  // // // // // // // //\n\n  function addDriver(address driverAddress, string firstname, string lastname) public isAdmin diverNotExist(driverAddress) returns (bool success) {\n    drivers[driverAddress] = Driver(driverAddress, firstname, lastname, '0', '0', 0, false);\n    driverList.push(driverAddress);\n    DriverAdded(msg.sender, 'Added Driver', driverAddress, firstname, lastname, now);\n    return true;\n  }\n\n  function verifyDriver(address driverAddress) public isAdmin driverExist(driverAddress) returns (bool success) {\n    drivers[driverAddress].isVerified = true;\n    return true;\n  }\n\n  function getDriver(address _address) public constant driverExist(_address) returns(address, string, string, string, string, bool) {\n    return (drivers[_address]._address, drivers[_address].firstname, drivers[_address].lastname,drivers[_address].longitude, drivers[_address].latitude, drivers[_address].isVerified);\n  }\n\n  function getDrivers() public constant returns (address[]) {\n    return driverList;\n  }\n\n  function getEarnings() public constant isDriver returns (uint256) {\n    return drivers[msg.sender].earnings;\n  }\n\n  // // // // // // // // //\n  // Passenger Management //\n  // // // // // // // // //\n\n  function addPassenger(address _address, string name, string mobile) public isAdmin passengerNotExist(_address) returns (bool success) {\n    passengers[_address] = Passenger(_address, name, mobile, false);\n    passengerList.push(_address);\n    return true;\n  }\n\n  function getPassenger(address _address) public constant passengerExist(_address) returns (address, string, string, bool) {\n    return (passengers[_address]._address, passengers[_address].name, passengers[_address].mobile, passengers[_address].isActive);\n  }\n\n  function getPassengers() public constant returns (address[]) {\n    return passengerList;\n  }\n\n  // // // // // // // //\n  // Ride Management //\n  // // // // // // //\n\n  function createRide(bytes32 rideId, address driver, address passenger) public rideNotExist(rideId) returns (bool success) {\n    rides[rideId] = Ride(rideId, driver, passenger, 0, 0, 0, 'initialized');\n    rideList.push(rideId);\n    return true;\n  }\n\n  function computeFare(bytes32 rideId ,uint256 distance, uint256 time) public rideExist(rideId) returns(uint256 fare) {\n    rides[rideId].distance = distance;\n    rides[rideId].time = time;\n    rides[rideId].price = baseFare + (distance * pricePerKm) + (time * pricePerMinute);\n    rides[rideId].status = 'inprogress';\n    return rides[rideId].price;\n  }\n\n  function cancelRide(bytes32 rideId) public rideExist(rideId) rideUsers(rideId) returns (bool success) {\n    rides[rideId].status = 'cancelled';\n    return true;\n  }\n\n  function payRide(bytes32 rideId, uint256 price) public rideExist(rideId) returns (bool success, uint256 change) {\n    if (rides[rideId].price > price) {\n      revert();\n    }\n    uint256 _change = rides[rideId].price - price;\n    rides[rideId].status = 'completed';\n    drivers[rides[rideId].driver].earnings += price;\n    return (true, _change);\n  }\n\n}\n",
  "sourcePath": "/Users/isaac/ZendCreative/Dryb/Truffle/DrybContract/contracts/Dryb.sol",
  "compiler": {
    "name": "solc",
    "version": "0.4.19+commit.c4cbbb05.Emscripten.clang"
  },
  "schemaVersion": "1.0.1",
  "updatedAt": "2018-03-22T20:14:40.641Z"
}